{
  "transactions": [
    {
      "hash": "0x2cc4abacf3cb173e2459e532e9b0bd8ed10527ee772a2865485d13a6f8e31032",
      "transactionType": "CALL",
      "contractName": null,
      "contractAddress": "0xd99d1c33f9fc3444f8101754abc46c52416550d1",
      "function": "swapExactETHForTokens(uint256,address[],address,uint256)",
      "arguments": [
        "0",
        "[0xae13d989daC2f0dEbFf460aC112a837C89BAa7cd, 0x16227D60f7a0e586C66B005219dfc887D13C9531]",
        "0x922623B4C5A7d8150AdB5c95fbf57C3C87CCFe1b",
        "1741171004"
      ],
      "transaction": {
        "from": "0x922623b4c5a7d8150adb5c95fbf57c3c87ccfe1b",
        "to": "0xd99d1c33f9fc3444f8101754abc46c52416550d1",
        "gas": "0x288ed",
        "value": "0x6f05b59d3b20000",
        "input": "0x7ff36ab500000000000000000000000000000000000000000000000000000000000000000000000000000000000000000000000000000000000000000000000000000080000000000000000000000000922623b4c5a7d8150adb5c95fbf57c3c87ccfe1b0000000000000000000000000000000000000000000000000000000067c8293c0000000000000000000000000000000000000000000000000000000000000002000000000000000000000000ae13d989dac2f0debff460ac112a837c89baa7cd00000000000000000000000016227d60f7a0e586c66b005219dfc887d13c9531",
        "nonce": "0x6e",
        "chainId": "0x61"
      },
      "additionalContracts": [],
      "isFixedGasLimit": false
    }
  ],
  "receipts": [
    {
      "status": "0x1",
      "cumulativeGasUsed": "0x37467",
      "logs": [
        {
          "address": "0xae13d989dac2f0debff460ac112a837c89baa7cd",
          "topics": [
            "0xe1fffcc4923d04b559f4d29a8bfc6cda04eb5b0d3c460751c2402c5c5cc9109c",
            "0x000000000000000000000000d99d1c33f9fc3444f8101754abc46c52416550d1"
          ],
          "data": "0x00000000000000000000000000000000000000000000000006f05b59d3b20000",
          "blockHash": "0x7fe932b7b3f74c5ffd9a4415eb6cdae22ac1512835aa3750bae0ce83401ff103",
          "blockNumber": "0x2e8de46",
          "transactionHash": "0x2cc4abacf3cb173e2459e532e9b0bd8ed10527ee772a2865485d13a6f8e31032",
          "transactionIndex": "0x1",
          "logIndex": "0x3",
          "removed": false
        },
        {
          "address": "0xae13d989dac2f0debff460ac112a837c89baa7cd",
          "topics": [
            "0xddf252ad1be2c89b69c2b068fc378daa952ba7f163c4a11628f55a4df523b3ef",
            "0x000000000000000000000000d99d1c33f9fc3444f8101754abc46c52416550d1",
            "0x000000000000000000000000d1d712395b1d018b02d231c355b3a3932f13b547"
          ],
          "data": "0x00000000000000000000000000000000000000000000000006f05b59d3b20000",
          "blockHash": "0x7fe932b7b3f74c5ffd9a4415eb6cdae22ac1512835aa3750bae0ce83401ff103",
          "blockNumber": "0x2e8de46",
          "transactionHash": "0x2cc4abacf3cb173e2459e532e9b0bd8ed10527ee772a2865485d13a6f8e31032",
          "transactionIndex": "0x1",
          "logIndex": "0x4",
          "removed": false
        },
        {
          "address": "0x16227d60f7a0e586c66b005219dfc887d13c9531",
          "topics": [
            "0xddf252ad1be2c89b69c2b068fc378daa952ba7f163c4a11628f55a4df523b3ef",
            "0x000000000000000000000000d1d712395b1d018b02d231c355b3a3932f13b547",
            "0x000000000000000000000000922623b4c5a7d8150adb5c95fbf57c3c87ccfe1b"
          ],
          "data": "0x0000000000000000000000000000000000000000000000000005c0db334da53f",
          "blockHash": "0x7fe932b7b3f74c5ffd9a4415eb6cdae22ac1512835aa3750bae0ce83401ff103",
          "blockNumber": "0x2e8de46",
          "transactionHash": "0x2cc4abacf3cb173e2459e532e9b0bd8ed10527ee772a2865485d13a6f8e31032",
          "transactionIndex": "0x1",
          "logIndex": "0x5",
          "removed": false
        },
        {
          "address": "0xd1d712395b1d018b02d231c355b3a3932f13b547",
          "topics": [
            "0x1c411e9a96e071241c2f21f7726b17ae89e3cab4c78be50e062b03a9fffbbad1"
          ],
          "data": "0x0000000000000000000000000000000000000000000000000004c9d0b53152070000000000000000000000000000000000000000000000000cb3cf59d068130b",
          "blockHash": "0x7fe932b7b3f74c5ffd9a4415eb6cdae22ac1512835aa3750bae0ce83401ff103",
          "blockNumber": "0x2e8de46",
          "transactionHash": "0x2cc4abacf3cb173e2459e532e9b0bd8ed10527ee772a2865485d13a6f8e31032",
          "transactionIndex": "0x1",
          "logIndex": "0x6",
          "removed": false
        },
        {
          "address": "0xd1d712395b1d018b02d231c355b3a3932f13b547",
          "topics": [
            "0xd78ad95fa46c994b6551d0da85fc275fe613ce37657fb8d5e3d130840159d822",
            "0x000000000000000000000000d99d1c33f9fc3444f8101754abc46c52416550d1",
            "0x000000000000000000000000922623b4c5a7d8150adb5c95fbf57c3c87ccfe1b"
          ],
          "data": "0x000000000000000000000000000000000000000000000000000000000000000000000000000000000000000000000000000000000000000006f05b59d3b200000000000000000000000000000000000000000000000000000005c0db334da53f0000000000000000000000000000000000000000000000000000000000000000",
          "blockHash": "0x7fe932b7b3f74c5ffd9a4415eb6cdae22ac1512835aa3750bae0ce83401ff103",
          "blockNumber": "0x2e8de46",
          "transactionHash": "0x2cc4abacf3cb173e2459e532e9b0bd8ed10527ee772a2865485d13a6f8e31032",
          "transactionIndex": "0x1",
          "logIndex": "0x7",
          "removed": false
        }
      ],
      "logsBloom": "0x0020000000000000000000008000000000004000000000000000000000000000004000000000000000000000000048000008000000000000001080000000000800400000000000000000000800040020000000000000000000000000c000000000020000000000200000000000000000000000800000000000200010000000000000000000000000000000000000000000000001000000080000204000000000000000000000000000000000000000000000000000000400000000000000000000000002000080000000000000000000000000000000001000000000000000000000000000000000000000000000000000000000000000400000000000000000",
      "type": "0x0",
      "transactionHash": "0x2cc4abacf3cb173e2459e532e9b0bd8ed10527ee772a2865485d13a6f8e31032",
      "transactionIndex": "0x1",
      "blockHash": "0x7fe932b7b3f74c5ffd9a4415eb6cdae22ac1512835aa3750bae0ce83401ff103",
      "blockNumber": "0x2e8de46",
      "gasUsed": "0x1d5d0",
      "effectiveGasPrice": "0x2540be400",
      "from": "0x922623b4c5a7d8150adb5c95fbf57c3c87ccfe1b",
      "to": "0xd99d1c33f9fc3444f8101754abc46c52416550d1",
      "contractAddress": null
    }
  ],
  "libraries": [],
  "pending": [],
  "returns": {},
  "timestamp": 1741169817,
  "chain": 97,
  "commit": "b8083d3"
}