{
  "transactions": [
    {
      "hash": "0xffb281b187c8275dfe357881d7c31d75ad9d68a3962c91fe285c67b496d4d2cc",
      "transactionType": "CALL",
      "contractName": null,
      "contractAddress": "0xd99d1c33f9fc3444f8101754abc46c52416550d1",
      "function": "swapExactETHForTokens(uint256,address[],address,uint256)",
      "arguments": [
        "0",
        "[0xae13d989daC2f0dEbFf460aC112a837C89BAa7cd, 0xA11c8D9DC9b66E209Ef60F0C8D969D3CD988782c]",
        "0x922623B4C5A7d8150AdB5c95fbf57C3C87CCFe1b",
        "1740654516"
      ],
      "transaction": {
        "from": "0x922623b4c5a7d8150adb5c95fbf57c3c87ccfe1b",
        "to": "0xd99d1c33f9fc3444f8101754abc46c52416550d1",
        "gas": "0x288fd",
        "value": "0x6f05b59d3b20000",
        "input": "0x7ff36ab500000000000000000000000000000000000000000000000000000000000000000000000000000000000000000000000000000000000000000000000000000080000000000000000000000000922623b4c5a7d8150adb5c95fbf57c3c87ccfe1b0000000000000000000000000000000000000000000000000000000067c047b40000000000000000000000000000000000000000000000000000000000000002000000000000000000000000ae13d989dac2f0debff460ac112a837c89baa7cd000000000000000000000000a11c8d9dc9b66e209ef60f0c8d969d3cd988782c",
        "nonce": "0x48",
        "chainId": "0x61"
      },
      "additionalContracts": [],
      "isFixedGasLimit": false
    }
  ],
  "receipts": [
    {
      "status": "0x1",
      "cumulativeGasUsed": "0x1d5dc",
      "logs": [
        {
          "address": "0xae13d989dac2f0debff460ac112a837c89baa7cd",
          "topics": [
            "0xe1fffcc4923d04b559f4d29a8bfc6cda04eb5b0d3c460751c2402c5c5cc9109c",
            "0x000000000000000000000000d99d1c33f9fc3444f8101754abc46c52416550d1"
          ],
          "data": "0x00000000000000000000000000000000000000000000000006f05b59d3b20000",
          "blockHash": "0xd3a6201e83fc76898fd4a79eae32ef910cf7cd9078d746abb8267a17b49b6e83",
          "blockNumber": "0x2e63e12",
          "transactionHash": "0xffb281b187c8275dfe357881d7c31d75ad9d68a3962c91fe285c67b496d4d2cc",
          "transactionIndex": "0x0",
          "logIndex": "0x0",
          "removed": false
        },
        {
          "address": "0xae13d989dac2f0debff460ac112a837c89baa7cd",
          "topics": [
            "0xddf252ad1be2c89b69c2b068fc378daa952ba7f163c4a11628f55a4df523b3ef",
            "0x000000000000000000000000d99d1c33f9fc3444f8101754abc46c52416550d1",
            "0x00000000000000000000000097b0307973f6f662ff32720c6d57c6619e936319"
          ],
          "data": "0x00000000000000000000000000000000000000000000000006f05b59d3b20000",
          "blockHash": "0xd3a6201e83fc76898fd4a79eae32ef910cf7cd9078d746abb8267a17b49b6e83",
          "blockNumber": "0x2e63e12",
          "transactionHash": "0xffb281b187c8275dfe357881d7c31d75ad9d68a3962c91fe285c67b496d4d2cc",
          "transactionIndex": "0x0",
          "logIndex": "0x1",
          "removed": false
        },
        {
          "address": "0xa11c8d9dc9b66e209ef60f0c8d969d3cd988782c",
          "topics": [
            "0xddf252ad1be2c89b69c2b068fc378daa952ba7f163c4a11628f55a4df523b3ef",
            "0x00000000000000000000000097b0307973f6f662ff32720c6d57c6619e936319",
            "0x000000000000000000000000922623b4c5a7d8150adb5c95fbf57c3c87ccfe1b"
          ],
          "data": "0x00000000000000000000000000000000000000000000000000235deebca36e06",
          "blockHash": "0xd3a6201e83fc76898fd4a79eae32ef910cf7cd9078d746abb8267a17b49b6e83",
          "blockNumber": "0x2e63e12",
          "transactionHash": "0xffb281b187c8275dfe357881d7c31d75ad9d68a3962c91fe285c67b496d4d2cc",
          "transactionIndex": "0x0",
          "logIndex": "0x2",
          "removed": false
        },
        {
          "address": "0x97b0307973f6f662ff32720c6d57c6619e936319",
          "topics": [
            "0x1c411e9a96e071241c2f21f7726b17ae89e3cab4c78be50e062b03a9fffbbad1"
          ],
          "data": "0x000000000000000000000000000000000000000000000000000007d8d8232daf00000000000000000000000000000000000000000000000006f1e4b140683261",
          "blockHash": "0xd3a6201e83fc76898fd4a79eae32ef910cf7cd9078d746abb8267a17b49b6e83",
          "blockNumber": "0x2e63e12",
          "transactionHash": "0xffb281b187c8275dfe357881d7c31d75ad9d68a3962c91fe285c67b496d4d2cc",
          "transactionIndex": "0x0",
          "logIndex": "0x3",
          "removed": false
        },
        {
          "address": "0x97b0307973f6f662ff32720c6d57c6619e936319",
          "topics": [
            "0xd78ad95fa46c994b6551d0da85fc275fe613ce37657fb8d5e3d130840159d822",
            "0x000000000000000000000000d99d1c33f9fc3444f8101754abc46c52416550d1",
            "0x000000000000000000000000922623b4c5a7d8150adb5c95fbf57c3c87ccfe1b"
          ],
          "data": "0x000000000000000000000000000000000000000000000000000000000000000000000000000000000000000000000000000000000000000006f05b59d3b2000000000000000000000000000000000000000000000000000000235deebca36e060000000000000000000000000000000000000000000000000000000000000000",
          "blockHash": "0xd3a6201e83fc76898fd4a79eae32ef910cf7cd9078d746abb8267a17b49b6e83",
          "blockNumber": "0x2e63e12",
          "transactionHash": "0xffb281b187c8275dfe357881d7c31d75ad9d68a3962c91fe285c67b496d4d2cc",
          "transactionIndex": "0x0",
          "logIndex": "0x4",
          "removed": false
        }
      ],
      "logsBloom": "0x0020000000000000000000008000000000004000000000000020000000000000000000000000000000000000000040000008000000000000000080000001000800400000000000000000000800000020000000000000000000000000c000000000040000000000000000000400000000000000000000000000000010000000000000000010040010000000000000000000000001000000080000204000000000000000000000000000000000000000000000000000000000000000000000000000000002000080000000000000000000000000000008001000000000000000002000000000000000000000000000000000000000000000400000000000000000",
      "type": "0x0",
      "transactionHash": "0xffb281b187c8275dfe357881d7c31d75ad9d68a3962c91fe285c67b496d4d2cc",
      "transactionIndex": "0x0",
      "blockHash": "0xd3a6201e83fc76898fd4a79eae32ef910cf7cd9078d746abb8267a17b49b6e83",
      "blockNumber": "0x2e63e12",
      "gasUsed": "0x1d5dc",
      "effectiveGasPrice": "0x174876e800",
      "from": "0x922623b4c5a7d8150adb5c95fbf57c3c87ccfe1b",
      "to": "0xd99d1c33f9fc3444f8101754abc46c52416550d1",
      "contractAddress": null
    }
  ],
  "libraries": [],
  "pending": [],
  "returns": {},
  "timestamp": 1740653329,
  "chain": 97,
  "commit": "f50eb98"
}