{
  "transactions": [
    {
      "hash": "0xe3cbb847f6222d4207b05a5d17caa4c34b49c9b9c08cf3fced45e1a59e98ba25",
      "transactionType": "CALL",
      "contractName": null,
      "contractAddress": "0x16227d60f7a0e586c66b005219dfc887d13c9531",
      "function": "transfer(address,uint256)",
      "arguments": [
        "0xD947d8859d3059838d867b29fE22f8e4084fEc2D",
        "100000000000"
      ],
      "transaction": {
        "from": "0x922623b4c5a7d8150adb5c95fbf57c3c87ccfe1b",
        "to": "0x16227d60f7a0e586c66b005219dfc887d13c9531",
        "gas": "0x12679",
        "value": "0x0",
        "input": "0xa9059cbb000000000000000000000000d947d8859d3059838d867b29fe22f8e4084fec2d000000000000000000000000000000000000000000000000000000174876e800",
        "nonce": "0x6f",
        "chainId": "0x61"
      },
      "additionalContracts": [],
      "isFixedGasLimit": false
    }
  ],
  "receipts": [
    {
      "status": "0x1",
      "cumulativeGasUsed": "0x48611",
      "logs": [
        {
          "address": "0x16227d60f7a0e586c66b005219dfc887d13c9531",
          "topics": [
            "0xddf252ad1be2c89b69c2b068fc378daa952ba7f163c4a11628f55a4df523b3ef",
            "0x000000000000000000000000922623b4c5a7d8150adb5c95fbf57c3c87ccfe1b",
            "0x000000000000000000000000d947d8859d3059838d867b29fe22f8e4084fec2d"
          ],
          "data": "0x000000000000000000000000000000000000000000000000000000174876e800",
          "blockHash": "0xe1a1a80f4ba6b99fbc6878fedea57179469989254afbcf7f3328e0ace396b2bc",
          "blockNumber": "0x2e8de60",
          "transactionHash": "0xe3cbb847f6222d4207b05a5d17caa4c34b49c9b9c08cf3fced45e1a59e98ba25",
          "transactionIndex": "0x2",
          "logIndex": "0x0",
          "removed": false
        }
      ],
      "logsBloom": "0x00000000000000000000000000000000000000000000000000000000000000000000400000000000000000000000080000000000000000000010800000000008000000000000000000000008000000000000000000000000000000000000000400000000000000000000000000000000000000000000000000000010000000000000000000000000000000000000000000000000000000000000000000000000000000000000000000000000000000000000000000000500000000000000000000000002000080000000000000000000000000000000000000000000000000000000000000000000000000000000000000000000000000000000000000000000",
      "type": "0x0",
      "transactionHash": "0xe3cbb847f6222d4207b05a5d17caa4c34b49c9b9c08cf3fced45e1a59e98ba25",
      "transactionIndex": "0x2",
      "blockHash": "0xe1a1a80f4ba6b99fbc6878fedea57179469989254afbcf7f3328e0ace396b2bc",
      "blockNumber": "0x2e8de60",
      "gasUsed": "0xc95a",
      "effectiveGasPrice": "0x2540be400",
      "from": "0x922623b4c5a7d8150adb5c95fbf57c3c87ccfe1b",
      "to": "0x16227d60f7a0e586c66b005219dfc887d13c9531",
      "contractAddress": null
    }
  ],
  "libraries": [],
  "pending": [],
  "returns": {},
  "timestamp": 1741169896,
  "chain": 97,
  "commit": "b8083d3"
}