{
  "transactions": [
    {
      "hash": "0x4c71edf5e012a2edb864929e83a454327582ecc65d25c4a6e20ff6eafd2da284",
      "transactionType": "CALL",
      "contractName": null,
      "contractAddress": "0xd22602168b7188f7a7fd47cb100a368a77e8ae1f",
      "function": "setVaultDeployer(address)",
      "arguments": [
        "0x15fe522ABBD3312906e3b0D309B8405ecEAf11b2"
      ],
      "transaction": {
        "from": "0x4c05168770a0afe0e4065d4ed81ebacae987de4a",
        "to": "0xd22602168b7188f7a7fd47cb100a368a77e8ae1f",
        "gas": "0x1121e",
        "value": "0x0",
        "input": "0x2389609100000000000000000000000015fe522abbd3312906e3b0d309b8405eceaf11b2",
        "nonce": "0x17",
        "chainId": "0x38"
      },
      "additionalContracts": [],
      "isFixedGasLimit": false
    },
    {
      "hash": "0x5552cd69a2ace602cafb6d24b200be4fc3a6f63b77cf953e091318f019e82478",
      "transactionType": "CALL",
      "contractName": null,
      "contractAddress": "0xd22602168b7188f7a7fd47cb100a368a77e8ae1f",
      "function": "setSupportedAssets(address[],uint256[])",
      "arguments": [
        "[0x55d398326f99059fF775485246999027B3197955, 0x8AC76a51cc950d9822D68b83fE1Ad97B32Cd580d]",
        "[1000000000000000000, 1000000000000000000]"
      ],
      "transaction": {
        "from": "0x4c05168770a0afe0e4065d4ed81ebacae987de4a",
        "to": "0xd22602168b7188f7a7fd47cb100a368a77e8ae1f",
        "gas": "0x19b62",
        "value": "0x0",
        "input": "0xe873b598000000000000000000000000000000000000000000000000000000000000004000000000000000000000000000000000000000000000000000000000000000a0000000000000000000000000000000000000000000000000000000000000000200000000000000000000000055d398326f99059ff775485246999027b31979550000000000000000000000008ac76a51cc950d9822d68b83fe1ad97b32cd580d00000000000000000000000000000000000000000000000000000000000000020000000000000000000000000000000000000000000000000de0b6b3a76400000000000000000000000000000000000000000000000000000de0b6b3a7640000",
        "nonce": "0x18",
        "chainId": "0x38"
      },
      "additionalContracts": [],
      "isFixedGasLimit": false
    }
  ],
  "receipts": [
    {
      "status": "0x1",
      "cumulativeGasUsed": "0x1854ba",
      "logs": [],
      "logsBloom": "0x00000000000000000000000000000000000000000000000000000000000000000000000000000000000000000000000000000000000000000000000000000000000000000000000000000000000000000000000000000000000000000000000000000000000000000000000000000000000000000000000000000000000000000000000000000000000000000000000000000000000000000000000000000000000000000000000000000000000000000000000000000000000000000000000000000000000000000000000000000000000000000000000000000000000000000000000000000000000000000000000000000000000000000000000000000000",
      "type": "0x0",
      "transactionHash": "0x4c71edf5e012a2edb864929e83a454327582ecc65d25c4a6e20ff6eafd2da284",
      "transactionIndex": "0x11",
      "blockHash": "0x5f3e90d913757b91ef93b837241a0e180cf93660e68a819b00836a0d7ed4d3c0",
      "blockNumber": "0x2d01f43",
      "gasUsed": "0xc675",
      "effectiveGasPrice": "0xb2d05e00",
      "from": "0x4c05168770a0afe0e4065d4ed81ebacae987de4a",
      "to": "0xd22602168b7188f7a7fd47cb100a368a77e8ae1f",
      "contractAddress": null
    },
    {
      "status": "0x1",
      "cumulativeGasUsed": "0x197e90",
      "logs": [],
      "logsBloom": "0x00000000000000000000000000000000000000000000000000000000000000000000000000000000000000000000000000000000000000000000000000000000000000000000000000000000000000000000000000000000000000000000000000000000000000000000000000000000000000000000000000000000000000000000000000000000000000000000000000000000000000000000000000000000000000000000000000000000000000000000000000000000000000000000000000000000000000000000000000000000000000000000000000000000000000000000000000000000000000000000000000000000000000000000000000000000",
      "type": "0x0",
      "transactionHash": "0x5552cd69a2ace602cafb6d24b200be4fc3a6f63b77cf953e091318f019e82478",
      "transactionIndex": "0x12",
      "blockHash": "0x5f3e90d913757b91ef93b837241a0e180cf93660e68a819b00836a0d7ed4d3c0",
      "blockNumber": "0x2d01f43",
      "gasUsed": "0x129d6",
      "effectiveGasPrice": "0xb2d05e00",
      "from": "0x4c05168770a0afe0e4065d4ed81ebacae987de4a",
      "to": "0xd22602168b7188f7a7fd47cb100a368a77e8ae1f",
      "contractAddress": null
    }
  ],
  "libraries": [],
  "pending": [],
  "returns": {},
  "timestamp": 1741163356,
  "chain": 56,
  "commit": "a228bd5"
}