{
  "transactions": [
    {
      "hash": "0x493b04d6f15587ec7fbc60830551c39bf695c1ee854c38965477237e7a9bcd0c",
      "transactionType": "CALL",
      "contractName": null,
      "contractAddress": "0xd22602168b7188f7a7fd47cb100a368a77e8ae1f",
      "function": "grantRole(bytes32,address)",
      "arguments": [
        "0x696e87880cf63dca8f080e7a026952044d39afbd9cb8ab3582bd4b29e6071b29",
        "0x752bcF76131c5c951659cA612431e53D743FD2AD"
      ],
      "transaction": {
        "from": "0x4c05168770a0afe0e4065d4ed81ebacae987de4a",
        "to": "0xd22602168b7188f7a7fd47cb100a368a77e8ae1f",
        "gas": "0x13fd7",
        "value": "0x0",
        "input": "0x2f2ff15d696e87880cf63dca8f080e7a026952044d39afbd9cb8ab3582bd4b29e6071b29000000000000000000000000752bcf76131c5c951659ca612431e53d743fd2ad",
        "nonce": "0x19",
        "chainId": "0x38"
      },
      "additionalContracts": [],
      "isFixedGasLimit": false
    }
  ],
  "receipts": [
    {
      "status": "0x1",
      "cumulativeGasUsed": "0x1c4ef0",
      "logs": [
        {
          "address": "0xd22602168b7188f7a7fd47cb100a368a77e8ae1f",
          "topics": [
            "0x2f8788117e7eff1d82e926ec794901d17c78024a50270940304540a733656f0d",
            "0x696e87880cf63dca8f080e7a026952044d39afbd9cb8ab3582bd4b29e6071b29",
            "0x000000000000000000000000752bcf76131c5c951659ca612431e53d743fd2ad",
            "0x0000000000000000000000004c05168770a0afe0e4065d4ed81ebacae987de4a"
          ],
          "data": "0x",
          "blockHash": "0x8de248d905c4703f85fa5809e4262ea28b74698db22b88f9d629363093215c48",
          "blockNumber": "0x2d020e7",
          "transactionHash": "0x493b04d6f15587ec7fbc60830551c39bf695c1ee854c38965477237e7a9bcd0c",
          "transactionIndex": "0x1a",
          "logIndex": "0x26",
          "removed": false
        }
      ],
      "logsBloom": "0x00000004000000000000000000000000000000000000000000000000080000000080000010000000000000000000040000000000000000000000000040000000000000000000000000000000000000000000000000000000000000004000080000000000000000000000000000000000000000000000000000000000000000000000000000000002000000000000020000000000000000000000000000000000000000000000000000000000000000000000000000000000001000000000000000000000000000000000000000000000000000000080000100000040000000000000000000000000000000000000000000000000010000000000000000000000",
      "type": "0x0",
      "transactionHash": "0x493b04d6f15587ec7fbc60830551c39bf695c1ee854c38965477237e7a9bcd0c",
      "transactionIndex": "0x1a",
      "blockHash": "0x8de248d905c4703f85fa5809e4262ea28b74698db22b88f9d629363093215c48",
      "blockNumber": "0x2d020e7",
      "gasUsed": "0xdab2",
      "effectiveGasPrice": "0xb2d05e00",
      "from": "0x4c05168770a0afe0e4065d4ed81ebacae987de4a",
      "to": "0xd22602168b7188f7a7fd47cb100a368a77e8ae1f",
      "contractAddress": null
    }
  ],
  "libraries": [],
  "pending": [],
  "returns": {},
  "timestamp": 1741164615,
  "chain": 56,
  "commit": "a228bd5"
}