{
  "transactions": [
    {
      "hash": "0x9808975defcb79f728dbe9d8dafbee15fc9af3194bba011516de2214f91f1767",
      "transactionType": "CALL",
      "contractName": null,
      "contractAddress": "0x950bd63efd82a17894d1087b7a5b54b418740c3a",
      "function": "mint(address,uint256)",
      "arguments": [
        "0xD947d8859d3059838d867b29fE22f8e4084fEc2D",
        "100000000000000000000000000"
      ],
      "transaction": {
        "from": "0x922623b4c5a7d8150adb5c95fbf57c3c87ccfe1b",
        "to": "0x950bd63efd82a17894d1087b7a5b54b418740c3a",
        "gas": "0xc341",
        "value": "0x0",
        "input": "0x40c10f19000000000000000000000000d947d8859d3059838d867b29fe22f8e4084fec2d00000000000000000000000000000000000000000052b7d2dcc80cd2e4000000",
        "nonce": "0x59",
        "chainId": "0x61"
      },
      "additionalContracts": [],
      "isFixedGasLimit": false
    }
  ],
  "receipts": [
    {
      "status": "0x1",
      "cumulativeGasUsed": "0x158d9",
      "logs": [
        {
          "address": "0x950bd63efd82a17894d1087b7a5b54b418740c3a",
          "topics": [
            "0xddf252ad1be2c89b69c2b068fc378daa952ba7f163c4a11628f55a4df523b3ef",
            "0x0000000000000000000000000000000000000000000000000000000000000000",
            "0x000000000000000000000000d947d8859d3059838d867b29fe22f8e4084fec2d"
          ],
          "data": "0x00000000000000000000000000000000000000000052b7d2dcc80cd2e4000000",
          "blockHash": "0x9f6dc9471ce8c07950037a65c11fd6de06dc7b1805a4434d7ec2d10c7145c58d",
          "blockNumber": "0x2e71802",
          "transactionHash": "0x9808975defcb79f728dbe9d8dafbee15fc9af3194bba011516de2214f91f1767",
          "transactionIndex": "0x1",
          "logIndex": "0x1",
          "removed": false
        }
      ],
      "logsBloom": "0x00000000000000000004000000000000000000000000000000000000000000000000400000000000000000000000000000000000000000000000000000000000000000000000000000000008000000000000000000000000000000000000000400000000020000000000040000000800000000000000000000000010000000000000000000000000000000000000000000000000000000000000000000000000000000000000000000000000000000000000000000000100000000000000080000000002000000000000000000000000000000000000000000000000000020000000000000000000000000000000000000000000000000000000000000000000",
      "type": "0x0",
      "transactionHash": "0x9808975defcb79f728dbe9d8dafbee15fc9af3194bba011516de2214f91f1767",
      "transactionIndex": "0x1",
      "blockHash": "0x9f6dc9471ce8c07950037a65c11fd6de06dc7b1805a4434d7ec2d10c7145c58d",
      "blockNumber": "0x2e71802",
      "gasUsed": "0x8582",
      "effectiveGasPrice": "0x20b9a5bc0",
      "from": "0x922623b4c5a7d8150adb5c95fbf57c3c87ccfe1b",
      "to": "0x950bd63efd82a17894d1087b7a5b54b418740c3a",
      "contractAddress": null
    }
  ],
  "libraries": [],
  "pending": [],
  "returns": {},
  "timestamp": 1740820825,
  "chain": 97,
  "commit": "d77d275"
}