{
  "transactions": [
    {
      "hash": "0xbf7e003a6b334f5429ad95f50fd5d9f218f160e0e7923f7248ce0b7ea6b741c8",
      "transactionType": "CALL",
      "contractName": null,
      "contractAddress": "0x502dad3702ef0186a66fa0f5c9ee581908ebd7c6",
      "function": "setSupportedAssets(address[],uint256[])",
      "arguments": [
        "[0xA11c8D9DC9b66E209Ef60F0C8D969D3CD988782c, 0x16227D60f7a0e586C66B005219dfc887D13C9531]",
        "[1000000000000000000, 1000000000000000000]"
      ],
      "transaction": {
        "from": "0x922623b4c5a7d8150adb5c95fbf57c3c87ccfe1b",
        "to": "0x502dad3702ef0186a66fa0f5c9ee581908ebd7c6",
        "gas": "0x13f9b",
        "value": "0x0",
        "input": "0xe873b598000000000000000000000000000000000000000000000000000000000000004000000000000000000000000000000000000000000000000000000000000000a00000000000000000000000000000000000000000000000000000000000000002000000000000000000000000a11c8d9dc9b66e209ef60f0c8d969d3cd988782c00000000000000000000000016227d60f7a0e586c66b005219dfc887d13c953100000000000000000000000000000000000000000000000000000000000000020000000000000000000000000000000000000000000000000de0b6b3a76400000000000000000000000000000000000000000000000000000de0b6b3a7640000",
        "nonce": "0x70",
        "chainId": "0x61"
      },
      "additionalContracts": [],
      "isFixedGasLimit": false
    }
  ],
  "receipts": [
    {
      "status": "0x1",
      "cumulativeGasUsed": "0x3ede0",
      "logs": [],
      "logsBloom": "0x00000000000000000000000000000000000000000000000000000000000000000000000000000000000000000000000000000000000000000000000000000000000000000000000000000000000000000000000000000000000000000000000000000000000000000000000000000000000000000000000000000000000000000000000000000000000000000000000000000000000000000000000000000000000000000000000000000000000000000000000000000000000000000000000000000000000000000000000000000000000000000000000000000000000000000000000000000000000000000000000000000000000000000000000000000000",
      "type": "0x0",
      "transactionHash": "0xbf7e003a6b334f5429ad95f50fd5d9f218f160e0e7923f7248ce0b7ea6b741c8",
      "transactionIndex": "0x2",
      "blockHash": "0xac71f3f6eb567395fc47adfca4cded9851c3e8e7c46db3740edbe1c742f821bd",
      "blockNumber": "0x2e8deda",
      "gasUsed": "0xe764",
      "effectiveGasPrice": "0x9502f9000",
      "from": "0x922623b4c5a7d8150adb5c95fbf57c3c87ccfe1b",
      "to": "0x502dad3702ef0186a66fa0f5c9ee581908ebd7c6",
      "contractAddress": null
    }
  ],
  "libraries": [],
  "pending": [],
  "returns": {},
  "timestamp": 1741170261,
  "chain": 97,
  "commit": "b8083d3"
}