{
  "transactions": [
    {
      "hash": "0x3e8dccc4540f46e7029e1cf0bd08e717a4dd289e2528c564210df6cf2efea30d",
      "transactionType": "CALL",
      "contractName": null,
      "contractAddress": "0xa11c8d9dc9b66e209ef60f0c8d969d3cd988782c",
      "function": "transfer(address,uint256)",
      "arguments": [
        "0xD947d8859d3059838d867b29fE22f8e4084fEc2D",
        "100000000"
      ],
      "transaction": {
        "from": "0x922623b4c5a7d8150adb5c95fbf57c3c87ccfe1b",
        "to": "0xa11c8d9dc9b66e209ef60f0c8d969d3cd988782c",
        "gas": "0x1160c",
        "value": "0x0",
        "input": "0xa9059cbb000000000000000000000000d947d8859d3059838d867b29fe22f8e4084fec2d0000000000000000000000000000000000000000000000000000000005f5e100",
        "nonce": "0x49",
        "chainId": "0x61"
      },
      "additionalContracts": [],
      "isFixedGasLimit": false
    }
  ],
  "receipts": [
    {
      "status": "0x1",
      "cumulativeGasUsed": "0xc94e",
      "logs": [
        {
          "address": "0xa11c8d9dc9b66e209ef60f0c8d969d3cd988782c",
          "topics": [
            "0xddf252ad1be2c89b69c2b068fc378daa952ba7f163c4a11628f55a4df523b3ef",
            "0x000000000000000000000000922623b4c5a7d8150adb5c95fbf57c3c87ccfe1b",
            "0x000000000000000000000000d947d8859d3059838d867b29fe22f8e4084fec2d"
          ],
          "data": "0x0000000000000000000000000000000000000000000000000000000005f5e100",
          "blockHash": "0xdf70255bd72d148ad243daf746206527c3bc4915da3b9593643d822eff5a1c5c",
          "blockNumber": "0x2e63e6c",
          "transactionHash": "0x3e8dccc4540f46e7029e1cf0bd08e717a4dd289e2528c564210df6cf2efea30d",
          "transactionIndex": "0x0",
          "logIndex": "0x0",
          "removed": false
        }
      ],
      "logsBloom": "0x00000000000000000000000000000000000000000000000000000000000000000000400000000000000000000000000000000000000000000000800000010008000000000000000000000008000000000000000000000000000000000000000400000000000000000000000400000000000000000000000000000010000000000000000000000010000000000000000000000000000000000000000000000000000000000000000000000000000000000000000000000100000000000000000000000002000080000000000000000000000000000000000000000000000000000000000000000000000000000000000000000000000000000000000000000000",
      "type": "0x0",
      "transactionHash": "0x3e8dccc4540f46e7029e1cf0bd08e717a4dd289e2528c564210df6cf2efea30d",
      "transactionIndex": "0x0",
      "blockHash": "0xdf70255bd72d148ad243daf746206527c3bc4915da3b9593643d822eff5a1c5c",
      "blockNumber": "0x2e63e6c",
      "gasUsed": "0xc94e",
      "effectiveGasPrice": "0x174876e800",
      "from": "0x922623b4c5a7d8150adb5c95fbf57c3c87ccfe1b",
      "to": "0xa11c8d9dc9b66e209ef60f0c8d969d3cd988782c",
      "contractAddress": null
    }
  ],
  "libraries": [],
  "pending": [],
  "returns": {},
  "timestamp": 1740653599,
  "chain": 97,
  "commit": "f50eb98"
}