{
  "transactions": [
    {
      "hash": "0x9ebe8654d63028a84375210698f71620953366317f5f2f111ee7731458199d1f",
      "transactionType": "CALL",
      "contractName": null,
      "contractAddress": "0x272eb06953d92454215c1b050d14aefc477451c7",
      "function": "setWhitelistedStrategy(address,bool)",
      "arguments": [
        "0x4452E49cCE56C4b5B5bD1c82B4e73D4010246BC5",
        "true"
      ],
      "transaction": {
        "from": "0x922623b4c5a7d8150adb5c95fbf57c3c87ccfe1b",
        "to": "0x272eb06953d92454215c1b050d14aefc477451c7",
        "gas": "0x12562",
        "value": "0x0",
        "input": "0x9d106d5b0000000000000000000000004452e49cce56c4b5b5bd1c82b4e73d4010246bc50000000000000000000000000000000000000000000000000000000000000001",
        "nonce": "0x9c",
        "chainId": "0x61"
      },
      "additionalContracts": [],
      "isFixedGasLimit": false
    },
    {
      "hash": "0x79bbb309c4fd12acf5edd77dc6edb53e66f5804c130cd876b3a4c69c6293b74d",
      "transactionType": "CALL",
      "contractName": null,
      "contractAddress": "0x272eb06953d92454215c1b050d14aefc477451c7",
      "function": "setWhitelistedStrategy(address,bool)",
      "arguments": [
        "0xEa8b602a6E94aD9716c7759CA0313c5368039177",
        "true"
      ],
      "transaction": {
        "from": "0x922623b4c5a7d8150adb5c95fbf57c3c87ccfe1b",
        "to": "0x272eb06953d92454215c1b050d14aefc477451c7",
        "gas": "0x12562",
        "value": "0x0",
        "input": "0x9d106d5b000000000000000000000000ea8b602a6e94ad9716c7759ca0313c53680391770000000000000000000000000000000000000000000000000000000000000001",
        "nonce": "0x9d",
        "chainId": "0x61"
      },
      "additionalContracts": [],
      "isFixedGasLimit": false
    }
  ],
  "receipts": [
    {
      "status": "0x1",
      "cumulativeGasUsed": "0xc89b",
      "logs": [],
      "logsBloom": "0x00000000000000000000000000000000000000000000000000000000000000000000000000000000000000000000000000000000000000000000000000000000000000000000000000000000000000000000000000000000000000000000000000000000000000000000000000000000000000000000000000000000000000000000000000000000000000000000000000000000000000000000000000000000000000000000000000000000000000000000000000000000000000000000000000000000000000000000000000000000000000000000000000000000000000000000000000000000000000000000000000000000000000000000000000000000",
      "type": "0x0",
      "transactionHash": "0x9ebe8654d63028a84375210698f71620953366317f5f2f111ee7731458199d1f",
      "transactionIndex": "0x0",
      "blockHash": "0x27e7d6461455cffeaaf54d1dff5121cb553b6d67c71c80ffe8c9fc273f3739d1",
      "blockNumber": "0x2ecc756",
      "gasUsed": "0xc89b",
      "effectiveGasPrice": "0x319567b81",
      "from": "0x922623b4c5a7d8150adb5c95fbf57c3c87ccfe1b",
      "to": "0x272eb06953d92454215c1b050d14aefc477451c7",
      "contractAddress": null
    },
    {
      "status": "0x1",
      "cumulativeGasUsed": "0xc89b",
      "logs": [],
      "logsBloom": "0x00000000000000000000000000000000000000000000000000000000000000000000000000000000000000000000000000000000000000000000000000000000000000000000000000000000000000000000000000000000000000000000000000000000000000000000000000000000000000000000000000000000000000000000000000000000000000000000000000000000000000000000000000000000000000000000000000000000000000000000000000000000000000000000000000000000000000000000000000000000000000000000000000000000000000000000000000000000000000000000000000000000000000000000000000000000",
      "type": "0x0",
      "transactionHash": "0x79bbb309c4fd12acf5edd77dc6edb53e66f5804c130cd876b3a4c69c6293b74d",
      "transactionIndex": "0x0",
      "blockHash": "0x906c69ddbf16dc73e7c31e1794b60c17fc47b2a07d94e182409c765a47dae7b7",
      "blockNumber": "0x2ecc757",
      "gasUsed": "0xc89b",
      "effectiveGasPrice": "0x319567b81",
      "from": "0x922623b4c5a7d8150adb5c95fbf57c3c87ccfe1b",
      "to": "0x272eb06953d92454215c1b050d14aefc477451c7",
      "contractAddress": null
    }
  ],
  "libraries": [],
  "pending": [],
  "returns": {},
  "timestamp": 1741938894,
  "chain": 97,
  "commit": "3148e25"
}