{
  "transactions": [
    {
      "hash": "0xc8c4af7bf03e9843e0103ad7b2b5badaf37d95d8caa18e830b4585c6ab2cac72",
      "transactionType": "CALL",
      "contractName": null,
      "contractAddress": "0x502dad3702ef0186a66fa0f5c9ee581908ebd7c6",
      "function": "setSupportedAssets(address[],uint256[])",
      "arguments": [
        "[0xA11c8D9DC9b66E209Ef60F0C8D969D3CD988782c, 0x950bD63EfD82a17894D1087b7A5b54B418740c3A]",
        "[10000000000000000000, 10000000000000000000]"
      ],
      "transaction": {
        "from": "0x922623b4c5a7d8150adb5c95fbf57c3c87ccfe1b",
        "to": "0x502dad3702ef0186a66fa0f5c9ee581908ebd7c6",
        "gas": "0x13e68",
        "value": "0x0",
        "input": "0xe873b598000000000000000000000000000000000000000000000000000000000000004000000000000000000000000000000000000000000000000000000000000000a00000000000000000000000000000000000000000000000000000000000000002000000000000000000000000a11c8d9dc9b66e209ef60f0c8d969d3cd988782c000000000000000000000000950bd63efd82a17894d1087b7a5b54b418740c3a00000000000000000000000000000000000000000000000000000000000000020000000000000000000000000000000000000000000000008ac7230489e800000000000000000000000000000000000000000000000000008ac7230489e80000",
        "nonce": "0x47",
        "chainId": "0x61"
      },
      "additionalContracts": [],
      "isFixedGasLimit": false
    }
  ],
  "receipts": [
    {
      "status": "0x1",
      "cumulativeGasUsed": "0x3ed02",
      "logs": [],
      "logsBloom": "0x00000000000000000000000000000000000000000000000000000000000000000000000000000000000000000000000000000000000000000000000000000000000000000000000000000000000000000000000000000000000000000000000000000000000000000000000000000000000000000000000000000000000000000000000000000000000000000000000000000000000000000000000000000000000000000000000000000000000000000000000000000000000000000000000000000000000000000000000000000000000000000000000000000000000000000000000000000000000000000000000000000000000000000000000000000000",
      "type": "0x0",
      "transactionHash": "0xc8c4af7bf03e9843e0103ad7b2b5badaf37d95d8caa18e830b4585c6ab2cac72",
      "transactionIndex": "0x2",
      "blockHash": "0xf40e95fe2a8e681d8a2941f522e3d9a91edd44ea6fd28f9a0742e4210e58ade5",
      "blockNumber": "0x2e63ddc",
      "gasUsed": "0xe686",
      "effectiveGasPrice": "0x174876e800",
      "from": "0x922623b4c5a7d8150adb5c95fbf57c3c87ccfe1b",
      "to": "0x502dad3702ef0186a66fa0f5c9ee581908ebd7c6",
      "contractAddress": null
    }
  ],
  "libraries": [],
  "pending": [],
  "returns": {},
  "timestamp": 1740653167,
  "chain": 97,
  "commit": "f50eb98"
}