{
  "transactions": [
    {
      "hash": "0xf5d14bf5cc2c8593d546e2ea4b88e77045ccdbe831c7ce805990a05b4989ea06",
      "transactionType": "CALL",
      "contractName": null,
      "contractAddress": "0x502dad3702ef0186a66fa0f5c9ee581908ebd7c6",
      "function": "setSupportedAssets(address[],uint256[])",
      "arguments": [
        "[0xA11c8D9DC9b66E209Ef60F0C8D969D3CD988782c, 0x950bD63EfD82a17894D1087b7A5b54B418740c3A]",
        "[1000000, 10000000000000000000]"
      ],
      "transaction": {
        "from": "0x922623b4c5a7d8150adb5c95fbf57c3c87ccfe1b",
        "to": "0x502dad3702ef0186a66fa0f5c9ee581908ebd7c6",
        "gas": "0xd2d8",
        "value": "0x0",
        "input": "0xe873b598000000000000000000000000000000000000000000000000000000000000004000000000000000000000000000000000000000000000000000000000000000a00000000000000000000000000000000000000000000000000000000000000002000000000000000000000000a11c8d9dc9b66e209ef60f0c8d969d3cd988782c000000000000000000000000950bd63efd82a17894d1087b7a5b54b418740c3a000000000000000000000000000000000000000000000000000000000000000200000000000000000000000000000000000000000000000000000000000f42400000000000000000000000000000000000000000000000008ac7230489e80000",
        "nonce": "0x4b",
        "chainId": "0x61"
      },
      "additionalContracts": [],
      "isFixedGasLimit": false
    }
  ],
  "receipts": [
    {
      "status": "0x1",
      "cumulativeGasUsed": "0x2373d",
      "logs": [],
      "logsBloom": "0x00000000000000000000000000000000000000000000000000000000000000000000000000000000000000000000000000000000000000000000000000000000000000000000000000000000000000000000000000000000000000000000000000000000000000000000000000000000000000000000000000000000000000000000000000000000000000000000000000000000000000000000000000000000000000000000000000000000000000000000000000000000000000000000000000000000000000000000000000000000000000000000000000000000000000000000000000000000000000000000000000000000000000000000000000000000",
      "type": "0x0",
      "transactionHash": "0xf5d14bf5cc2c8593d546e2ea4b88e77045ccdbe831c7ce805990a05b4989ea06",
      "transactionIndex": "0x1",
      "blockHash": "0x565e45aaa8a818e987a559c4fd2be35bed6b7adb74fbc45e34578d6f54d2fed6",
      "blockNumber": "0x2e64381",
      "gasUsed": "0x98a6",
      "effectiveGasPrice": "0x174876e800",
      "from": "0x922623b4c5a7d8150adb5c95fbf57c3c87ccfe1b",
      "to": "0x502dad3702ef0186a66fa0f5c9ee581908ebd7c6",
      "contractAddress": null
    }
  ],
  "libraries": [],
  "pending": [],
  "returns": {},
  "timestamp": 1740657503,
  "chain": 97,
  "commit": "f50eb98"
}