{
  "transactions": [
    {
      "hash": "0xf8c63d7fe3389457d9600d01bb3d7a0b38c205080b0517ddc9b7148a3eb9668e",
      "transactionType": "CALL",
      "contractName": null,
      "contractAddress": "0x950bd63efd82a17894d1087b7a5b54b418740c3a",
      "function": "mint(address,uint256)",
      "arguments": [
        "0xD947d8859d3059838d867b29fE22f8e4084fEc2D",
        "100000000000000000000000000"
      ],
      "transaction": {
        "from": "0x922623b4c5a7d8150adb5c95fbf57c3c87ccfe1b",
        "to": "0x950bd63efd82a17894d1087b7a5b54b418740c3a",
        "gas": "0x114aa",
        "value": "0x0",
        "input": "0x40c10f19000000000000000000000000d947d8859d3059838d867b29fe22f8e4084fec2d00000000000000000000000000000000000000000052b7d2dcc80cd2e4000000",
        "nonce": "0x58",
        "chainId": "0x61"
      },
      "additionalContracts": [],
      "isFixedGasLimit": false
    }
  ],
  "receipts": [
    {
      "status": "0x1",
      "cumulativeGasUsed": "0xc84e",
      "logs": [
        {
          "address": "0x950bd63efd82a17894d1087b7a5b54b418740c3a",
          "topics": [
            "0xddf252ad1be2c89b69c2b068fc378daa952ba7f163c4a11628f55a4df523b3ef",
            "0x0000000000000000000000000000000000000000000000000000000000000000",
            "0x000000000000000000000000d947d8859d3059838d867b29fe22f8e4084fec2d"
          ],
          "data": "0x00000000000000000000000000000000000000000052b7d2dcc80cd2e4000000",
          "blockHash": "0x94e81c66830c46d2579d5ea95d9d80cfa8877e3960dcdde2cf25e623b992f2dc",
          "blockNumber": "0x2e70c82",
          "transactionHash": "0xf8c63d7fe3389457d9600d01bb3d7a0b38c205080b0517ddc9b7148a3eb9668e",
          "transactionIndex": "0x0",
          "logIndex": "0x0",
          "removed": false
        }
      ],
      "logsBloom": "0x00000000000000000004000000000000000000000000000000000000000000000000400000000000000000000000000000000000000000000000000000000000000000000000000000000008000000000000000000000000000000000000000400000000020000000000040000000800000000000000000000000010000000000000000000000000000000000000000000000000000000000000000000000000000000000000000000000000000000000000000000000100000000000000080000000002000000000000000000000000000000000000000000000000000020000000000000000000000000000000000000000000000000000000000000000000",
      "type": "0x0",
      "transactionHash": "0xf8c63d7fe3389457d9600d01bb3d7a0b38c205080b0517ddc9b7148a3eb9668e",
      "transactionIndex": "0x0",
      "blockHash": "0x94e81c66830c46d2579d5ea95d9d80cfa8877e3960dcdde2cf25e623b992f2dc",
      "blockNumber": "0x2e70c82",
      "gasUsed": "0xc84e",
      "effectiveGasPrice": "0x174876e800",
      "from": "0x922623b4c5a7d8150adb5c95fbf57c3c87ccfe1b",
      "to": "0x950bd63efd82a17894d1087b7a5b54b418740c3a",
      "contractAddress": null
    }
  ],
  "libraries": [],
  "pending": [],
  "returns": {},
  "timestamp": 1740811993,
  "chain": 97,
  "commit": "d77d275"
}