{
  "transactions": [
    {
      "hash": "0x1c97930503d54070242f8dbf6da246dd5c2143dc615ce30d915431e192bb1097",
      "transactionType": "CALL",
      "contractName": null,
      "contractAddress": "0x502dad3702ef0186a66fa0f5c9ee581908ebd7c6",
      "function": "setSupportedAssets(address[],uint256[])",
      "arguments": [
        "[0xA11c8D9DC9b66E209Ef60F0C8D969D3CD988782c, 0x16227D60f7a0e586C66B005219dfc887D13C9531]",
        "[1000000, 1000000]"
      ],
      "transaction": {
        "from": "0x922623b4c5a7d8150adb5c95fbf57c3c87ccfe1b",
        "to": "0x502dad3702ef0186a66fa0f5c9ee581908ebd7c6",
        "gas": "0xe2f4",
        "value": "0x0",
        "input": "0xe873b598000000000000000000000000000000000000000000000000000000000000004000000000000000000000000000000000000000000000000000000000000000a00000000000000000000000000000000000000000000000000000000000000002000000000000000000000000a11c8d9dc9b66e209ef60f0c8d969d3cd988782c00000000000000000000000016227d60f7a0e586c66b005219dfc887d13c9531000000000000000000000000000000000000000000000000000000000000000200000000000000000000000000000000000000000000000000000000000f424000000000000000000000000000000000000000000000000000000000000f4240",
        "nonce": "0x71",
        "chainId": "0x61"
      },
      "additionalContracts": [],
      "isFixedGasLimit": false
    }
  ],
  "receipts": [
    {
      "status": "0x1",
      "cumulativeGasUsed": "0xf658",
      "logs": [],
      "logsBloom": "0x00000000000000000000000000000000000000000000000000000000000000000000000000000000000000000000000000000000000000000000000000000000000000000000000000000000000000000000000000000000000000000000000000000000000000000000000000000000000000000000000000000000000000000000000000000000000000000000000000000000000000000000000000000000000000000000000000000000000000000000000000000000000000000000000000000000000000000000000000000000000000000000000000000000000000000000000000000000000000000000000000000000000000000000000000000000",
      "type": "0x0",
      "transactionHash": "0x1c97930503d54070242f8dbf6da246dd5c2143dc615ce30d915431e192bb1097",
      "transactionIndex": "0x1",
      "blockHash": "0xf788ef47091cf7ea46e52f9b568df19333e99cc3c2f3e0af4d37197ade876262",
      "blockNumber": "0x2e8dfc8",
      "gasUsed": "0xa450",
      "effectiveGasPrice": "0x174876e800",
      "from": "0x922623b4c5a7d8150adb5c95fbf57c3c87ccfe1b",
      "to": "0x502dad3702ef0186a66fa0f5c9ee581908ebd7c6",
      "contractAddress": null
    }
  ],
  "libraries": [],
  "pending": [],
  "returns": {},
  "timestamp": 1741170974,
  "chain": 97,
  "commit": "b8083d3"
}